:020000040800F2
:1000000000000220DD190008451600084716000808
:10001000491600084B1600084D16000800000000A5
:100020000000000000000000000000004F16000863
:10003000511600080000000053160008551600086D
:100040002D1A00082D1A00082D1A00082D1A000874
:100050002D1A00082D1A00082D1A00082D1A000864
:100060002D1A00082D1A00082D1A00082D1A000854
:100070002D1A00082D1A00082D1A00082D1A000844
:100080002D1A00082D1A00082D1A00082D1A000834
:100090002D1A00082D1A00082D1A00082D1A000824
:1000A0002D1A00082D1A00082D1A00082D1A000814
:1000B0005D1600082D1A00082D1A00082D1A0008D8
:1000C0002D1A00082D1A00082D1A00082D1A0008F4
:1000D0002D1A00086D1600082D1A00082D1A0008A8
:1000E0002D1A00082D1A00082D1A00082D1A0008D4
:1000F0002D1A00082D1A00082D1A00082D1A0008C4
:100100002D1A00082D1A00082D1A00082D1A0008B3
:100110002D1A00082D1A00082D1A00082D1A0008A3
:100120002D1A00082D1A00082D1A00082D1A000893
:100130002D1A00082D1A00082D1A00082D1A000883
:100140002D1A00082D1A00082D1A00082D1A000873
:100150002D1A00082D1A00082D1A00082D1A000863
:100160002D1A00082D1A00082D1A00082D1A000853
:100170002D1A00082D1A00082D1A00080000000092
:080180002D1A00082D1A0008D9
:1001C00081F0004102E000BF83F0004330B54FEA08
:1001D00041044FEA430594EA050F08BF90EA020F75
:1001E0001FBF54EA000C55EA020C7FEA645C7FEA08
:1001F000655C00F0E2804FEA5454D4EB5555B8BF2B
:100200006D420CDD2C4480EA020281EA030382EA9B
:10021000000083EA010180EA020281EA0303362D2D
:1002200088BF30BD11F0004F4FEA01314FF4801C00
:100230004CEA113102D0404261EB410113F0004F12
:100240004FEA03334CEA133302D0524263EB4303C9
:1002500094EA050F00F0A780A4F10104D5F1200E67
:100260000DDB02FA0EFC22FA05F2801841F10001C2
:1002700003FA0EF2801843FA05F359410EE0A5F196
:1002800020050EF1200E012A03FA0EFC28BF4CF0C7
:10029000020C43FA05F3C01851EBE37101F000457D
:1002A00007D54FF0000EDCF1000C7EEB00006EEB8A
:1002B0000101B1F5801F1BD3B1F5001F0CD3490814
:1002C0005FEA30004FEA3C0C04F101044FEA44526B
:1002D00012F5800F80F09A80BCF1004F08BF5FEAF2
:1002E000500C50F1000041EB045141EA050130BDD2
:1002F0005FEA4C0C404141EB0101013C28BFB1F5E4
:10030000801FE9D291F0000F04BF01460020B1FA2E
:1003100081F308BF2033A3F10B03B3F120020CDA01
:100320000C3208DD02F1140CC2F10C0201FA0CF0DF
:1003300021FA02F10CE002F11402D8BFC2F1200C44
:1003400001FA02F120FA0CFCDCBF41EA0C019040FA
:10035000E41AA2BF01EB0451294330BD6FEA040443
:100360001F3C1CDA0C340EDC04F11404C4F120022E
:1003700020FA04F001FA02F340EA030021FA04F340
:1003800045EA030130BDC4F10C04C4F1200220FA97
:1003900002F001FA04F340EA0300294630BD21FAD5
:1003A00004F0294630BD94F0000F83F4801306BF9B
:1003B00081F480110134013D4EE77FEA645C18BF8F
:1003C0007FEA655C29D094EA050F08BF90EA020F26
:1003D00005D054EA000C04BF1946104630BD91EA1E
:1003E000030F1EBF0021002030BD5FEA545C05D121
:1003F0004000494128BF41F0004130BD14F5800460
:100400003CBF01F5801130BD01F0004545F0FE41D3
:1004100041F470014FF0000030BD7FEA645C1ABF08
:10042000194610467FEA655C1CBF0B46024650EA3F
:10043000013406BF52EA033591EA030F41F400216B
:1004400030BD00BF90F0000F04BF0021704730B5F1
:100450004FF4806404F132044FF000054FF00001C6
:1004600050E700BF90F0000F04BF0021704730B587
:100470004FF4806404F1320410F0004548BF40425C
:100480004FF000013EE700BF42004FEAE2014FEAB1
:1004900031014FEA02701FBF12F07F4393F07F4F8C
:1004A00081F06051704732F07F4208BF704793F08F
:1004B0007F4F04BF41F40021704730B54FF46074A2
:1004C00001F0004521F000411CE700BF50EA0102A5
:1004D00008BF704730B54FF000050AE050EA01024E
:1004E00008BF704730B511F0004502D5404261EBBE
:1004F00041014FF4806404F132045FEA915C3FF4FF
:10050000D8AE4FF003025FEADC0C18BF03325FEA9B
:10051000DC0C18BF033202EBDC02C2F1200300FA4C
:1005200003FC20FA02F001FA03FE40EA0E0021FA71
:1005300002F11444BDE600BF4FF0FF3C06E000BFEF
:100540004FF0010C02E000BF4FF0010C4DF804CD5C
:100550004FEA410C7FEA6C5C4FEA430C18BF7FEA1C
:100560006C5C1BD001B050EA410C0CBF52EA430C4A
:1005700091EA030F02BF90EA020F0020704710F1CA
:10058000000F91EA030F58BF994208BF90422CBF59
:10059000D8176FEAE37040F0010070474FEA410C52
:1005A0007FEA6C5C02D150EA013C07D14FEA430C70
:1005B0007FEA6C5CD6D152EA033CD3D05DF8040BE1
:1005C000704700BF8446104662468C461946634613
:1005D00000E000BF01B5FFF7B7FF002848BF10F1EA
:1005E000000F01BD4DF808EDFFF7F4FF0CBF01202F
:1005F00000205DF808FB00BF4DF808EDFFF7EAFFAB
:1006000034BF012000205DF808FB00BF4DF808ED65
:10061000FFF7E0FF94BF012000205DF808FB00BF5A
:100620004DF808EDFFF7CEFF94BF012000205DF8E4
:1006300008FB00BF4DF808EDFFF7C4FF34BF0120F1
:1006400000205DF808FB00BF4A0011D212F500122D
:1006500011D20DD56FF47873B3EB62520ED44FEA1A
:10066000C12343F0004343EA505323FA02F070479A
:100670004FF00000704750EA013002D14FF0FF30D8
:1006800070474FF00000704753B94AB9002908BFBE
:1006900000281CBF4FF0FF314FF0FF3000F00CB8C6
:1006A000ADF1080C6DE904CE30F010FEDDF804E089
:1006B000DDE9022304B07047704700BF000000006E
:1006C00002780B78012A28BF9A4240F0D8806DE961
:1006D000044540EA0104CDE902676FF0000C4FEADF
:1006E00044721AB380EA010414F0070F6BD100F0D2
:1006F000070420F0070004F0030521F007014FEA8A
:10070000C505F0E8042314F0040FF1E804670CFABF
:1007100005F462EA040266EA04060BD063EA040305
:10072000624667EA0407664604E000BFF0E8042377
:10073000F1E8046782FA4CF582EA0604A4FA8CF424
:100740006CBB83FA4CF583EA0705A5FA8CF595B9DD
:1007500050E9022351E9026782FA4CF582EA060465
:10076000A4FA8CF483FA4CF583EA0705A5FA8CF514
:100770002543DBD09CB92DBAB5FA85F424F00704E3
:1007800027FA04F1DDE9026723FA04F303F0FF001E
:1007900001F0FF01FDE80445A0EB0100704724BA19
:1007A000B4FA84F424F0070426FA04F1DDE90267C0
:1007B00022FA04F202F0FF0001F0FF01FDE8044517
:1007C000A0EB0100704714F0030F3CD110F00304BC
:1007D00028D150F8082B51F8083B82FA4CF582EAF0
:1007E0000305A5FA8CF55DB950F8042C51F8043CCA
:1007F00082FA4CF582EA0305A5FA8CF5002DE8D0C3
:100800002DBAB5FA85F424F0070423FA04F122FA8C
:1008100004F202F0FF0001F0FF01FDE80445A0EB47
:10082000010070474FEAC40420F0030050F8082B81
:1008300021F0030151F8083B0CFA04F462EA0402C7
:1008400063EA0403C9E710F003041DD0A1EB04011F
:1008500020F00300E40750F8042B06D012D28B7866
:100860005FFAA2F4E41A06D12BB1CB785FFAB2F4A6
:10087000E41A00D133B920465DF8104B7047A2EB63
:100880000300704701F1040150F8042BCC0721F05C
:10089000030151F8043B48D824D222F07F4482FA65
:1008A0004CF594EA1325A5FA8CF50AD165B951F8EF
:1008B000043B84EA0204B4EB036F0ED150F8042B1E
:1008C000EBE74FEA132355E035F07F454DD108782B
:1008D000FDE80445C0F1000070474FEA126203F0E2
:1008E000FF0347E002EA1C4482FA4CF594EA134500
:1008F000A5FA8CF50AD165B951F8043B84EA0204E3
:10090000B4EB034F0CD150F8042BEBE74FEA134341
:1009100030E015EA1C4528D10B884FEA124229E045
:100920004FEA124203EA1C4324E002F0FF0482FA79
:100930004CF594EA1365A5FA8CF50AD165B951F81E
:10094000043B84EA0204B4EB032F09D150F8042BD2
:10095000EBE74FEA13630DE015F0FF0F05D10B68CD
:100960004FEA122223F07F4304E04FF00000FDE83D
:100970000445704712BA1BBA82FA4CF482EA0304A7
:10098000A4FA8CF5B5FA85F402FA04F203FA04F33A
:100990004FEA1260FDE80445A0EB1360704700BF0A
:1009A00001F0FF01102A2BDB10F0070F08D010F820
:1009B000013B013A8B422DD010F0070F42B3F6D124
:1009C000F0B441EA012141EA014122F007047FF03D
:1009D00000070023F0E80256083C85EA010586EA94
:1009E000010685FA47F5A3FA87F586FA47F6A5FAD0
:1009F00087F68EB9EED1F0BC01F0FF0102F00702DC
:100A000032B110F8013B013A83EA010313B1F8D186
:100A10000020704701387047002D06BF3546033867
:100A2000073815F0010F07D1013015F4807F02BFA0
:100A3000013015F4C03F0130F0BC0138704700BFF1
:100A4000844641EA000313F003036DD1403A41D3D9
:100A500051F8043B40F8043B51F8043B40F8043B98
:100A600051F8043B40F8043B51F8043B40F8043B88
:100A700051F8043B40F8043B51F8043B40F8043B78
:100A800051F8043B40F8043B51F8043B40F8043B68
:100A900051F8043B40F8043B51F8043B40F8043B58
:100AA00051F8043B40F8043B51F8043B40F8043B48
:100AB00051F8043B40F8043B51F8043B40F8043B38
:100AC00051F8043B40F8043B51F8043B40F8043B28
:100AD000403ABDD2303211D351F8043B40F8043BC8
:100AE00051F8043B40F8043B51F8043B40F8043B08
:100AF00051F8043B40F8043B103AEDD20C3205D3D8
:100B000051F8043B40F8043B043AF9D2043208D0CF
:100B1000D2071CBF11F8013B00F8013B01D30B8841
:100B200003806046704700BF082A13D38B078DD01F
:100B300010F003038AD0C3F10403D21ADB071CBFF1
:100B400011F8013B00F8013B80D331F8023B20F85B
:100B5000023B7BE7043AD9D3013A11F8013B00F894
:100B6000013BF9D20B7803704B7843708B7883701C
:100B70006046704700000000000000000000000018
:100B800030B490F800F020F007016FF0000C10F086
:100B9000070491F820F040F048804FF000046FF017
:100BA0000700D1E9002391F840F000F1080082FA33
:100BB0004CF2A4FA8CF283FA4CF3A2FA8CF34BBBFE
:100BC000D1E9022382FA4CF200F10800A4FA8CF277
:100BD00083FA4CF3A2FA8CF3E3B9D1E9042382FA45
:100BE0004CF200F10800A4FA8CF283FA4CF3A2FA5A
:100BF0008CF37BB9D1E9062301F1200182FA4CF292
:100C000000F10800A4FA8CF283FA4CF3A2FA8CF3F8
:100C1000002BC6D0002A04BF04301A4612BAB2FA1A
:100C200082F200EBD20030BC7047D1E9002304F01F
:100C30000305C4F100004FEAC50514F0040F91F854
:100C400040F00CFA05F562EA05021CBF63EA0503F1
:100C500062464FF00004AAE770B54FF0FF0C4CF469
:100C6000E06C1CEA11541DBF1CEA135594EA0C0FEA
:100C700095EA0C0F00F0DEF82C4481EA030621EA25
:100C80004C5123EA4C5350EA013518BF52EA033560
:100C900041F4801143F4801338D0A0FB02CE4FF012
:100CA0000005E1FB02E506F00042E0FB03E54FF042
:100CB0000006E1FB03569CF0000F18BF4EF0010E3A
:100CC000A4F1FF04B6F5007F64F5407404D25FEA36
:100CD0004E0E6D4146EB060642EAC62141EA5551E9
:100CE0004FEAC52040EA5E504FEACE2EB4F1FD0C2B
:100CF00088BFBCF5E06F1ED8BEF1004F08BF5FEAA9
:100D0000500E50F1000041EB045170BD06F000465A
:100D100046EA010140EA020081EA0301B4EB5C0407
:100D2000C2BFD4EB0C0541EA045170BD41F48011FF
:100D30004FF0000E013C00F3AB8014F1360FDEBF24
:100D4000002001F0004170BDC4F10004203C35DA00
:100D50000C341BDC04F11404C4F1200500FA05F383
:100D600020FA04F001FA05F240EA020001F0004224
:100D700021F0004110EBD37021FA04F642EB06019A
:100D80005EEA430E08BF20EAD37070BDC4F10C04C4
:100D9000C4F1200500FA04F320FA05F001FA04F288
:100DA00040EA020001F0004110EBD37041F1000174
:100DB0005EEA430E08BF20EAD37070BDC4F120057F
:100DC00000FA05F24EEA020E20FA04F301FA05F2E7
:100DD00043EA020321FA04F001F0004121FA04F28F
:100DE00020EA020000EBD3705EEA430E08BF20EA5F
:100DF000D37070BD94F0000F0FD101F00046400099
:100E000041EB010111F4801F08BF013CF7D041EA1A
:100E1000060195F0000F18BF704703F0004652001E
:100E200043EB030313F4801F08BF013DF7D043EAEF
:100E30000603704794EA0C0F0CEA135518BF95EAA5
:100E40000C0F0CD050EA410618BF52EA4306D1D12C
:100E500081EA030101F000414FF0000070BD50EA4B
:100E6000410606BF1046194652EA430619D094EAD5
:100E70000C0F02D150EA013613D195EA0C0F05D1BF
:100E800052EA03361CBF104619460AD181EA030113
:100E900001F0004141F0FE4141F470014FF00000CB
:100EA00070BD41F0FE4141F4780170BD70B54FF066
:100EB000FF0C4CF4E06C1CEA11541DBF1CEA1355E6
:100EC00094EA0C0F95EA0C0F00F0A7F8A4EB0504C8
:100ED00081EA030E52EA03354FEA013100F08880BF
:100EE0004FEA03334FF0805545EA131343EA126388
:100EF0004FEA022245EA111545EA10654FEA00263D
:100F00000EF000419D4208BF964244F1FD0404F5F5
:100F1000407402D25B084FEA3202B61A65EB030551
:100F20005B084FEA32024FF480104FF4002CB6EB0E
:100F3000020E75EB030E22BFB61A754640EA0C008E
:100F40005B084FEA3202B6EB020E75EB030E22BFCE
:100F5000B61A754640EA5C005B084FEA3202B6EB0F
:100F6000020E75EB030E22BFB61A754640EA9C00CE
:100F70005B084FEA3202B6EB020E75EB030E22BF9E
:100F8000B61A754640EADC0055EA060E18D04FEA5C
:100F9000051545EA16754FEA06164FEAC30343EAFC
:100FA00052734FEAC2025FEA1C1CC0D111F4801FC9
:100FB0000BD141EA00014FF000004FF0004CB6E7C2
:100FC00011F4801F04BF01430020B4F1FD0C88BF61
:100FD000BCF5E06F3FF6AFAEB5EB030C04BFB6EB6C
:100FE000020C5FEA500C50F1000041EB045170BD5F
:100FF0000EF0004E4EEA113114EB5C04C2BFD4EB8C
:101000000C0541EA045170BD41F480114FF0000E0F
:10101000013C90E645EA060E8DE60CEA135594EA8B
:101020000C0F08BF95EA0C0F3FF43BAF94EA0C0F8E
:101030000AD150EA01347FF434AF95EA0C0F7FF403
:1010400025AF104619462CE795EA0C0F06D152EA57
:1010500003353FF4FDAE1046194622E750EA41063B
:1010600018BF52EA43067FF4C5AE50EA41047FF44C
:101070000DAF52EA43057FF4EBAE12E74FEA410CA5
:101080007FEA6C5C02D150EA013C0AD14FEA430C82
:101090007FEA6C5C02D152EA033C02D14FF00000BF
:1010A00070474FF0010070474FEA410212F50012FD
:1010B00015D211D56FF47873B3EB625212D94FEA9F
:1010C000C12343F0004343EA505311F0004F23FA89
:1010D00002F018BF404270474FF00000704750EADE
:1010E000013005D111F0004008BF6FF0004070479B
:1010F0004FF00000704700BF0348044B834202D00A
:10110000034B03B118477047900800209008002057
:10111000000000000548064B1B1AD90F01EBA30184
:10112000491002D0034B03B11847704790080020C4
:10113000900800200000000010B5064C237843B949
:10114000FFF7DAFF044B13B10448AFF3008001232B
:10115000237010BD9008002000000000D47B03081D
:1011600008B5054B1BB105490548AFF30080BDE844
:101170000840FFF7CFBF00BF000000009408002028
:10118000D47B0308A82303FB00F04FF0E023586151
:1011900000229A611A6942F001021A614FF0E023BD
:1011A0001B6913F4803FF9D04FF0E022136923F05C
:1011B00001031361704738B50546002404E04FF47D
:1011C0007A70FFF7DFFF0134A542F8D838BD000080
:1011D00030B58DB000240794089409940A940B94B8
:1011E00001942C4B1A6B42F010021A631A6B02F036
:1011F00010020192019A02941A6B42F020021A63C3
:101200001A6B02F020020292029A03941A6B42F0C7
:1012100080021A631A6B02F080020392039A04940C
:101220001A6B42F040021A631A6B02F040020492F9
:10123000049A05941A6B42F008021A631A6B02F0C2
:1012400008020592059A06941A6B42F001021A638D
:101250001B6B03F001030693069B0F4D01224FF415
:10126000C061284600F04CFE102307930894022327
:10127000099307A9094800F04DFD4FF4C063079397
:101280000123089309940A9407A9284600F042FD17
:101290000DB030BD00380240001402400010024082
:1012A00008B50368B3F1804F00D008BD01201FF0DE
:1012B000D1F8FAE772B6FEE700B595B0302200210A
:1012C00008A831F0FFFE00230393049305930693CF
:1012D000079301931F4A116C41F080511164126C05
:1012E00002F080520192019A02931B4A116841F464
:1012F00080411160126802F480420292029A022236
:10130000089201210B9110210C910E920F9308234A
:101310001093A823119312920423139308A800F0AA
:10132000F5FD98B90F23039302230493002305933B
:101330004FF4A05306934FF480530793052103A85D
:1013400001F04EF820B915B05DF804FBFFF7B2FFCD
:10135000FFF7B0FF003802400070004008B500F011
:101360008DFBFFF7A9FFFFF733FF00F00BFB00F049
:1013700043FA094801F066F906F02CFC03F07EFD03
:1013800003F0D6FD02F07CF921F072FC034B5B68A0
:1013900000209847F8E700BFB0080020A80100200F
:1013A00010B586B0002300930E4B1A6B42F0020278
:1013B0001A631B6B03F002030093009B4FF440730E
:1013C00001930124029403940223049301A9064883
:1013D00000F0A0FC054BC3F8A442C3F8A04206B03D
:1013E00010BD00BF003802400004024000804042AF
:1013F00038B50D4B1A6822F440221A601A6842F47C
:1014000080221A60094C0123C4F8A432C4F8A03227
:101410000420FFF7B7FE0025C4F8A4520420FFF70C
:10142000B1FEC4F8A05238BD000402400080404222
:1014300038B50F4B1A6822F440221A601A6842F439
:1014400080221A600B4C0023C4F8A032C4F8A432E6
:101450000420FFF797FE0125C4F8A0520420FFF7EF
:1014600091FEC4F8A4520420FFF78CFE38BD00BFE3
:10147000000402400080404238B5124B1A6822F442
:1014800040221A601A681A600F4D0124C5F8A44260
:101490002046FFF777FEC5F8A0422046FFF772FE10
:1014A0000023094AD2F824223AB10133DBB2FA2BE5
:1014B000F7D9FFF7BDFF012003E00020024BC3F87E
:1014C000A00238BD000402400080404238B50D4CF7
:1014D0000025C4F8A0520C4B1A6822F440221A606E
:1014E0001A6842F480221A60C4F8A4520220FFF75E
:1014F00049FE0123C4F8A0320220FFF743FEC4F8DE
:10150000A05238BD008040420004024070B50D4C2E
:101510000025C4F8A0520C4B1A6822F440221A602D
:101520001A6842F480221A600126C4F8A4620220DC
:10153000FFF728FEC4F8A0620220FFF723FEC4F8DC
:10154000A05270BD008040420004024070B50546C4
:10155000134B1A6822F440221A601A6842F480225F
:101560001A6000240F4BC3F8A04216E0EB090D4EA1
:10157000C6F8A4326D00EDB20220FFF703FE01238E
:10158000C6F8A0320220FFF7FDFD0023C6F8A03206
:101590000220FFF7F7FD0134E4B2072CE6D970BD55
:1015A0000004024000804042F8B50746154B1A6817
:1015B00022F440221A601A681A600024254604E0CA
:1015C0000120FFF7DFFD0135EDB2072D12D80E4ED9
:1015D0000023C6F8A0320220FFF7D4FD0123C6F88D
:1015E000A0329C40E4B2D6F82432002BE8D001347B
:1015F000E4B2E5E71FB9FFF789FF2046F8BDFFF722
:1016000065FFFAE7000402400080404282B00021FA
:1016100000910B4B5A6C42F480425A645A6C02F4AB
:1016200080420092009A01911A6C42F080521A6432
:101630001B6C03F080530193019B02B0704700BF05
:1016400000380240FEE7FEE7FEE7FEE7FEE77047F0
:101650007047704708B500F02BFA08BD08B502487E
:1016600001F038F808BD00BFB008002010B582B006
:101670000E4C204601F044FD23681A6812F0100F4A
:1016800001D102B010BD002201921A6801925B687C
:101690000193019B2046E38D9BB205490A68C3F57F
:1016A00000731A440A6001F04FFCEAE7BC11002005
:1016B000F80800200268184B9A4200D0704710B515
:1016C000164B19684A1E586D154C224442605A6DDB
:1016D00008325A65DB6D9A4213D0C1F50063B3F549
:1016E000007F12D20D4B00221A605B6D0C4A1A600B
:1016F0000A4B5B6D4FF4007219680A4801F024FF31
:1017000010BD064B1A1D5A65E7E7044B5B6D044A92
:1017100011441960ECE700BF00100140F8080020F8
:1017200058090020BC1100200120704708B531F095
:10173000ADFD162303604FF0FF3008BD08B54FF034
:10174000FF31FFF7F3FFFEE770B50C4616460025A4
:1017500006E0AFF30080214601F8010B01350C468D
:10176000B542F6DB304670BD70B50C461646002516
:1017700004E014F8010BAFF300800135B542F8DB4B
:10178000304670BD4FF0FF3070474FF400534B6050
:1017900000207047012070470020704710B50346B5
:1017A0000C4A0D490D48006840B10C4800680344DC
:1017B000521A934206D8094A136010BD0748084CD4
:1017C0000460F2E731F062FD0C2303604FF0FF305C
:1017D000F3E700BF0000022000040000AC08002076
:1017E000D8000120034AD2F8883043F47003C2F8CD
:1017F0008830704700ED00E000B587B00023029309
:101800000393049305930093019316484FF080428D
:10181000026053224260202282604FF47A72C260DA
:101820000361836101F078F890B94FF4805302931B
:1018300002A90C4801F0A9F868B9002300930193AC
:101840006946084801F020F940B907B05DF804FB8B
:10185000FFF730FDE9E7FFF72DFDEEE7FFF72AFD83
:10186000F3E700BFB00800200368B3F1804F00D059
:10187000704700B583B00022019203F50E33196C56
:1018800041F0010119641B6C03F001030193019BFA
:1018900002211C2000F064F91C2000F071F903B053
:1018A0005DF804FB10B588B00023039304930593FF
:1018B00006930793026803F1804303F588339A4245
:1018C00001D008B010BD0024019403F594335A6C84
:1018D00042F010025A645A6C02F010020192019A0E
:1018E00002941A6B42F001021A631B6B03F00103AE
:1018F0000293029B4FF4C0630393022304930323D8
:1019000006930723079303A9054800F003FA22462C
:101910000421252000F024F9252000F031F9D0E73A
:10192000000002400FB410B582B004AA52F8041BA4
:101930000192094C204631F059FA2046FFF720F970
:10194000FF2382B22146054801F04DFA02B0BDE8FE
:10195000104004B0704700BF58110020BC11002097
:10196000064B1A46002142F8041B5A659A6503F19A
:101970004C02DA65024A5A60704700BFF80800203E
:101980005809002008B51248124B03604FF4E133A8
:10199000436000238360C36003610C224261836162
:1019A000C36101F0F1F978B9FFF7DAFF084802687E
:1019B000D36843F01003D360074B5B6D4FF40072A4
:1019C000196801F050FD08BDFFF774FCECE700BF9B
:1019D000BC11002000100140F8080020DFF834D0CE
:1019E0000D480E490E4A002302E0D458C450043377
:1019F000C4188C42F9D30B4A0B4C002301E013604E
:101A00000432A242FBD3FFF7EDFE31F045FCFFF7B5
:101A1000A5FC704700000220000000209008002074
:101A20007C0F0A0890080020D4000120FEE7000087
:101A300010B504460E4B1A784FF47A73B3FBF2F3E9
:101A40000C4A1068B0FBF3F000F0A8F868B90F2C4E
:101A500001D901200AE0002221464FF0FF3000F0BA
:101A60007FF8054B1C60002000E0012010BD00BF86
:101A700004000020000000200800002008B50B4BE7
:101A80001A6842F400721A601A6842F480621A609E
:101A90001A6842F480721A60032000F04FF80420A4
:101AA000FFF7C6FFFFF7B2FD002008BD003C024073
:101AB000034A1168034B1B780B441360704700BF47
:101AC0000012002004000020014B1868704700BF7E
:101AD00000120020002808DB0901C9B200F16040B3
:101AE00000F5614080F80013704700F00F00090115
:101AF000C9B2014B1954704714ED00E000B500F075
:101B00000700C0F1070CBCF1040F28BF4FF0040C14
:101B1000031D062B0FD9C31E4FF0FF3E0EFA0CF02B
:101B200021EA000199400EFA03FE22EA0E0241EA80
:101B300002005DF804FB0023EEE70000074AD368CB
:101B400023F4E0631B041B0C000200F4E060034379
:101B500043F0BF6343F40033D360704700ED00E00F
:101B600010B50446054BD868C0F30220FFF7C6FF46
:101B700001462046FFF7AEFF10BD00BF00ED00E0BC
:101B8000002807DB00F01F02400901239340024AAE
:101B900042F82030704700BF00E100E00138B0F1AA
:101BA000807F0BD24FF0E0235861054AF02182F884
:101BB00023100020986107221A61704701207047A6
:101BC00000ED00E030B405682C6824F480242C601B
:101BD000046863608368402B05D0036899600368DC
:101BE000DA6030BC704703689A600368D960F8E730
:101BF00038B50446856D90F8340001282BD00120BB
:101C000084F8340094F83500C0B2012804D00023D1
:101C100084F83430022038BD022084F835000020DA
:101C200060652046FFF7CEFFE26D3F239340AB6037
:101C30002268136843F016031360236C23B12268F3
:101C4000136843F0080313602268136843F001032C
:101C500013600020DFE70220DDE770B50446866DE3
:101C6000FFF732FF94F83530DBB2022B06D0802329
:101C70006365002384F83430012070BD0546226876
:101C8000136823F0160313602268536923F080035E
:101C90005361236CE3B12268136823F008031360D7
:101CA0002268136823F00103136023681B6813F094
:101CB000010F11D0FFF708FF431B052BF5D9202397
:101CC0006365032084F83500002384F83430D4E7BA
:101CD000A36C002BDFD1E3E7E26D3F239340B360B9
:101CE000012384F83530002084F83400C5E790F8EB
:101CF0003530DBB2022B03D08023436501207047CF
:101D0000052380F835300268136823F0010313605F
:101D10000020704700230F2B00F2E98070B582B0DD
:101D200065E085684FEA430E032404FA0EF425EAC1
:101D30000405CC6804FA0EF42C438460446824EA59
:101D400002044A68C2F300129A40224342605CE0F7
:101D5000DC08083450F8242003F00705AD004FF0EC
:101D60000F0E0EFA05FE22EA0E0E0A69AA4042EA9A
:101D70000E0240F824205CE0072200E0002202FA74
:101D80000EF22A4302345A4D45F82420594A9468E9
:101D90006FEA0C0224EA0C054E6816F4801F01D08D
:101DA0004CEA0405534CA560E46802EA04054E6859
:101DB00016F4001F01D04CEA04054E4CE56064683F
:101DC00002EA04054E6816F4003F01D04CEA04050F
:101DD000484C6560246822404D6815F4803F01D06E
:101DE0004CEA0402434C226001330F2B7DD80122C0
:101DF0009A400C6804EA020C32EA0404F4D14C68FC
:101E000004F00304013C012C8BD94A6802F0030260
:101E1000032A09D0C4685D000322AA4024EA020410
:101E20008A68AA402243C2604A6802F00302022A7A
:101E30008ED004684FEA430E032202FA0EF224EA1F
:101E400002044A6802F0030202FA0EF22243026020
:101E50004A6812F4403FC7D000220192264A546CCF
:101E600044F480445464526C02F480420192019A1A
:101E70009C08A51C1E4A52F8255003F0030E4FEA99
:101E80008E0E0F2202FA0EF225EA02051B4A90423C
:101E90003FF474AF02F5806290421AD002F580627E
:101EA000904218D002F58062904216D002F580620E
:101EB000904214D002F58062904212D002F5806206
:101EC000904210D002F5806290423FF455AF082254
:101ED00055E7012253E7022251E703224FE704228C
:101EE0004DE705224BE7062249E702B070BD704777
:101EF00000380140003C0140003802400000024030
:101F00000AB181617047090481617047002800F0BF
:101F1000E08170B582B00446036813F0010F3BD036
:101F20009F4B9B6803F00C03042B2CD09C4B9B68AD
:101F300003F00C03082B21D06368B3F5803F4FD02A
:101F4000B3F5A02F52D0964B1A6822F480321A6053
:101F50001A6822F480221A606368002B50D0FFF7C1
:101F6000B3FD05468E4B1B6813F4003F14D1FFF7F9
:101F7000ABFD401B6428F5D90320B1E1884B5B68B9
:101F800013F4800FD8D0864B1B6813F4003F03D0A6
:101F90006368002B00F09F81236813F0020F54D078
:101FA0007F4B9B6813F00C0F3ED07D4B9B6803F07A
:101FB0000C03082B33D0E368002B68D0794B012247
:101FC0001A60FFF781FD0546754B1B6813F0020F81
:101FD00054D1FFF779FD401B0228F5D903207FE19A
:101FE0006F4A136843F480331360B5E76C4B1A688B
:101FF00042F480221A601A6842F480321A60ABE719
:10200000FFF762FD0546664B1B6813F4003FC3D023
:10201000FFF75AFD401B6428F5D9032060E1604BAF
:102020005B6813F4800FC6D15D4B1B6813F0020F81
:1020300003D0E368012B40F05081594A136823F024
:10204000F803216943EAC1031360236813F0080F02
:1020500042D063696BB3534B0122C3F8802EFFF764
:1020600033FD05464E4B5B6F13F0020F34D1FFF783
:102070002BFD401B0228F5D9032031E1484A1368A3
:1020800023F0F803216943EAC1031360DDE7454B00
:1020900000221A60FFF718FD0546414B1B6813F03C
:1020A000020FD2D0FFF710FD401B0228F5D9032004
:1020B00016E13C4B0022C3F8802EFFF705FD0546D4
:1020C000374B5B6F13F0020F06D0FFF7FDFC401B90
:1020D0000228F5D9032003E1236813F0040F77D019
:1020E0002F4B1B6C13F0805F33D1002301932C4BDB
:1020F0001A6C42F080521A641B6C03F080530193F7
:10210000019B0125284B1B6813F4807F23D0A36813
:10211000012B34D0052B38D0214B1A6F22F001024D
:102120001A671A6F22F004021A67A368002B3DD0C9
:10213000FFF7CAFC06461A4B1B6F13F0020F46D17D
:10214000FFF7C2FC801B41F288339842F3D9032089
:10215000C6E00025D6E7144A136843F48073136081
:10216000FFF7B2FC0646104B1B6813F4807FCED1FC
:10217000FFF7AAFC801B0228F5D90320B0E0084A2B
:10218000136F43F001031367CFE7054B1A6F42F05B
:1021900004021A671A6F42F001021A67C5E700BF0E
:1021A000003802400000474200700040FFF78CFCFE
:1021B0000646524B1B6F13F0020F08D0FFF784FC4A
:1021C000801B41F288339842F3D9032088E0EDB9AF
:1021D000A369002B00F08380484A926802F00C0249
:1021E000082A51D0022B17D0454B00221A66FFF760
:1021F0006BFC0446414B1B6813F0007F42D0FFF795
:1022000063FC001B0228F5D9032069E03B4A136CEC
:1022100023F080531364DBE7394B00221A66FFF783
:1022200053FC0546354B1B6813F0007F06D0FFF7C3
:102230004BFC401B0228F5D9032051E0E369226AD8
:102240001343626A43EA8213A26A5208013A43EADC
:102250000243E26A43EA0263284A5360284B0122A0
:102260001A66FFF731FC0446244B1B6813F0007F0D
:1022700006D1FFF729FC001B0228F5D903202FE027
:1022800000202DE000202BE0012B2BD01B4B5B68A6
:1022900003F48001E269914226D103F03F02216AF2
:1022A0008A4223D1616A47F6C0721A40B2EB811F9D
:1022B0001ED103F44031A26A5208013AB1EB024F39
:1022C00018D103F07063E26AB3EB026F14D10020FF
:1022D00006E001207047012002E0012000E000201C
:1022E00002B070BD0120FBE70120F9E70120F7E70C
:1022F0000120F5E70120F3E70120F1E70038024073
:102300000000474208B5334B9B6803F00C03042BD5
:102310005BD0082B5BD12F4B5A6802F03F025B6801
:1023200013F4800F2CD02B4B5868C0F388104FEA61
:10233000401CBCEB000C6EEB0E0E4FEA8E1343EA12
:102340009C634FEA8C11B1EB0C0163EB0E03DB00D5
:1023500043EA5173C90011EB000C43F10003590229
:1023600000234FEA4C2041EADC51FEF78DF9194B6E
:102370005B68C3F3014301335B00B0FBF3F008BDBE
:10238000144B5868C0F388104FEA401CBCEB000C9B
:102390006EEB0E0E4FEA8E1343EA9C634FEA8C11EC
:1023A000B1EB0C0163EB0E03DB0043EA5173C90090
:1023B00011EB000C43F10003990200234FEA8C203B
:1023C00041EA9C51FEF760F9D1E70348D7E703489B
:1023D000D5E700BF0038024000127A000024F40064
:1023E000002800F09B8070B50D4604464F4B1B68DB
:1023F00003F007038B4208D2CBB24C4A1370136828
:1024000003F007038B4240F08B80236813F0020F28
:1024100017D013F0040F04D0454A936843F4E053F7
:102420009360236813F0080F04D0414A936843F483
:10243000604393603E4A936823F0F003A1680B4326
:102440009360236813F0010F32D06368012B21D011
:102450009A1E012A25D9364A126812F0020F61D05D
:1024600033498A6822F0030213438B60FFF72CFB89
:1024700006462F4B9B6803F00C036268B3EB820F98
:1024800016D0FFF721FB801B41F288339842F0D928
:10249000032042E0264A126812F4003FE0D10120F6
:1024A0003BE0234A126812F0007FD9D1012034E0CA
:1024B0001E4B1B6803F00703AB4207D9EAB21B4B64
:1024C0001A701B6803F00703AB422DD1236813F089
:1024D000040F06D0164A936823F4E053E1680B43D7
:1024E0009360236813F0080F07D0114A936823F410
:1024F0006043216943EAC1039360FFF703FF0C4B7C
:102500009B68C3F303130B4AD35CD8400A4B186093
:102510000A4B1868FFF78CFA002070BD0120704745
:102520000120FAE70120F8E70120F6E7003C02402D
:1025300000380240207C0308000000200800002032
:10254000014B1868704700BF0000002008B5FFF776
:10255000F7FF044B9B68C3F38223034AD35CD84044
:1025600008BD00BF00380240187C030808B5FFF71B
:10257000E7FF044B9B68C3F34233034AD35CD84064
:1025800008BD00BF00380240187C030840B370B596
:102590000E461546044690F84930E3B1214651F8FD
:1025A000080B00F0EDFFA2683146206801F01EF82C
:1025B000236BA2682946606801F03AF82268A16896
:1025C00052F8213043F0010342F82130012384F80E
:1025D0004930002070BD80F848302AF075FFDDE7F3
:1025E0000120704710B4036A046A24F001040462F5
:1025F000846924F0F00C4CEA021223F00A030B4326
:10260000826103625DF8044B704710B4036A23F0E3
:10261000100303628469036A24F4704C4CEA0232AA
:1026200023F0A00343EA0113826103625DF8044BC7
:102630007047836823F070030B4343F00703836004
:102640007047000090F83D30DBB2012B37D10223F8
:1026500080F83D300268D36843F00103D36003681B
:10266000194A934220D0B3F1804F1DD0A2F57C428D
:10267000934219D002F58062934215D002F5806230
:10268000934211D002F5784293420DD002F5705278
:10269000934209D0A2F59432934205D01A6842F0D1
:1026A00001021A60002070479A6802F00702062AA9
:1026B00007D01A6842F001021A600020704701201A
:1026C00070470020704700BF00000140704770470E
:1026D0007047704710B5044603681A6912F0020F7C
:1026E00011D0DA6812F0020F0DD06FF002021A61F9
:1026F0000123037703689B6913F0030F70D0FFF782
:10270000E6FF0023237723681A6912F0040F12D022
:10271000DA6812F0040F0ED06FF004021A6102237F
:10272000237723689B6913F4407F5FD02046FFF72F
:10273000CEFF0023237723681A6912F0080F12D006
:10274000DA6812F0080F0ED06FF008021A61042345
:1027500023772368DB6913F0030F4ED02046FFF781
:10276000B6FF0023237723681A6912F0100F12D0E6
:10277000DA6812F0100F0ED06FF010021A61082301
:1027800023772368DB6913F4407F3DD02046FFF7B1
:102790009EFF0023237723681A6912F0010F03D0EC
:1027A000DA6812F0010F36D123681A6912F0800F2F
:1027B00003D0DA6812F0800F34D123681A6912F05E
:1027C000400F03D0DA6812F0400F32D123681A6943
:1027D00012F0200F03D0DA6812F0200F30D110BDB4
:1027E000FFF774FF2046FFF773FF8AE72046FFF7E5
:1027F0006DFF2046FFF76CFF9BE72046FFF766FF63
:102800002046FFF765FFACE72046FFF75FFF204655
:10281000FFF75EFFBDE76FF001021A612046FEF789
:102820003FFDC1E76FF080021A61204600F073F9A6
:10283000C3E76FF040021A612046FFF74AFFC5E781
:102840006FF020021A61204600F064F9C7E700002B
:102850000368304A904212D0B0F1804F0FD0A2F5F9
:102860007C4290420BD002F58062904207D002F584
:102870008062904203D002F57842904203D123F067
:1028800070034A681343234A90422AD0B0F1804F24
:1028900027D0A2F57C42904223D002F5806290427C
:1028A0001FD002F5806290421BD002F57842904220
:1028B00017D002F57052904213D002F58062904218
:1028C0000FD002F5806290420BD0A2F59832904270
:1028D00007D002F58062904203D002F580629042F8
:1028E00003D123F44073CA68134323F080034A6979
:1028F000134303608B68C3620B688362054B984285
:1029000003D003F58063984201D10B69036301236F
:10291000436170470000014040B310B5044690F891
:102920003D30F3B1022384F83D30214651F8040BC9
:10293000FFF78EFF012384F8463084F83E3084F898
:102940003F3084F8403084F8413084F8423084F8D5
:10295000433084F8443084F8453084F83D3000201A
:1029600010BD80F83C30FEF77FFFDBE701207047A9
:1029700010B4846824F47F4C42EA03220A4342EAFA
:102980000C0282605DF8044B704790F83C30012BDC
:1029900078D010B50446012380F83C30022380F83B
:1029A0003D300268936823F47F4323F077039360FC
:1029B0000B68602B4CD023D8402B54D011D8202B3F
:1029C00003D00AD80BB1102B05D119462068FFF7A8
:1029D00030FE002028E0012026E0302BF5D0012039
:1029E00022E0502B0AD1CA6849680068FFF7FAFD57
:1029F00050212068FFF71DFE002015E0012013E0A4
:102A0000B3F5805F3AD0B3F5005F14D0702B37D1A7
:102A1000CB684A6889680068FFF7AAFF2268936854
:102A200043F0770393600020012384F83D300023B6
:102A300084F83C3010BDCB684A6889680068FFF7AD
:102A400097FF2268936843F4804393600020EBE78C
:102A5000CA6849680068FFF7D8FD60212068FFF761
:102A6000E8FD0020E0E7CA6849680068FFF7BAFDA2
:102A700040212068FFF7DDFD0020D5E70020D3E7E7
:102A80000120D1E70220704790F83C20012A3DD078
:102A900010B40346012280F83C20022280F83D2039
:102AA00002685068946820F0700C086840EA0C00D6
:102AB00050601A68164882421AD0B2F1804F17D07F
:102AC000A0F57C40824213D000F5806082420FD096
:102AD00000F5806082420BD000F57840824207D03A
:102AE00000F57050824203D0A0F59430824204D1A8
:102AF00024F08004496821439160012283F83D203D
:102B0000002083F83C005DF8044B704702207047BA
:102B10000000014070477047026802F10C0353E85F
:102B2000003F23F0C0030C3242E800310029F3D10A
:102B3000202380F83D307047026802F10C0353E80F
:102B4000003F23F490730C3242E800310029F3D1A6
:102B5000026802F1140353E8003F23F0010314322A
:102B600042E800310029F3D1036B012B05D020236B
:102B700080F83E30002303637047026802F10C03C3
:102B800053E8003F23F010030C3242E800310029E3
:102B9000F3D1ECE790F83D30DBB2212B01D00220DD
:102BA00070478368B3F5805F17D0036A5A1C0262CE
:102BB0001A7803685A60C38C9BB2013B9BB2C384F2
:102BC0004BB90268D36823F08003D3600268D368EE
:102BD00043F04003D360002070470369002BE4D129
:102BE000036A1B880268C3F308035360036A023355
:102BF0000362E0E710B504460268136923F440530A
:102C0000C1680B431361836802691A4343691A431D
:102C1000C3691A430168CB6823F4164323F00C03FD
:102C20001343CB600268536923F4407381690B43FB
:102C300053610368314A934206D002F580629342A1
:102C400002D0FFF783FC01E0FFF790FCE369B3F5E6
:102C5000004F29D00021031849411B1841F1000100
:102C6000C90041EA5371DB00181863684FEA830218
:102C70004FEA937341F10001FDF706FD204AA2FBE4
:102C800000314909642303FB11031B013233A2FB0A
:102C900003235B0903F0F00202EB011203F00F03C0
:102CA000216813448B6010BD0023021843EB03011D
:102CB000121841F10001C90041EA5271D200101806
:102CC00041F10001626892185B41FDF7DDFC0C4A9E
:102CD000A2FB00314909642303FB1103DB003233FB
:102CE000A2FB03235B095A0002F4F87202EB011203
:102CF00003F00703216813448B60D4E70010014000
:102D00001F85EB512DE9F84305460F4616469946B7
:102D1000DDF820802B681C6837EA04040CBF01240E
:102D20000024B4422DD1B8F1FF3FF3D0B8F1000F29
:102D300005D0FEF7C9FEA0EB09004045EAD92A6894
:102D400002F10C0353E8003F23F4D0730C3242E845
:102D500000310029F3D12A6802F1140353E8003F3F
:102D600023F00103143242E800310029F3D120237B
:102D700085F83D3085F83E30002385F83C3003204F
:102D800000E00020BDE8F88358B310B5044690F881
:102D90003D300BB3242384F83D302268D36823F4FC
:102DA0000053D3602046FFF725FF2268136923F400
:102DB000904313612268536923F02A035361226808
:102DC000D36843F40053D36000202064202384F8A8
:102DD0003D3084F83E3010BD80F83C30FEF762FD97
:102DE000D8E7012070472DE9F04182B01E4690F8E7
:102DF0003D30DBB2202B54D104460D4690460029CD
:102E000053D0002A53D090F83C30012B51D00123ED
:102E100080F83C3000230364212380F83D30FEF726
:102E200053FE0746A4F82480A4F82680A368B3F5CF
:102E3000805F05D04FF00008002384F83C3012E09A
:102E4000236913B14FF00008F6E7A8460025F3E721
:102E500038F8023B2268C3F308035360E28C92B255
:102E6000013A92B2E284E38C9BB273B100963B4686
:102E7000002280212046FFF745FFE0B9002DE7D072
:102E800015F8012B23685A60E8E700963B460022BC
:102E900040212046FFF736FF78B9202384F83D30E3
:102EA00000E0022002B0BDE8F0810120FAE7012035
:102EB000F8E70220F6E70320F4E70320F2E7704783
:102EC00008B50168CA6822F04002CA60202280F872
:102ED0003D20FFF7F4FF002008BD704770477047A2
:102EE00010B5846B23685A6994F83D30DBB2212B0E
:102EF00010D023685A6902F0400294F83E30DBB2E9
:102F0000222B11D0236C43F0100323642046FFF7DB
:102F1000E6FF10BD02F08002002AEAD00023E3841D
:102F20002046FFF7F9FDE4E7002AEBD00023E38514
:102F30002046FFF701FEE5E708B5806B0023C38557
:102F4000C384FFF7CCFF08BD10B50446226802F128
:102F50000C0353E8003F23F490730C3242E8003135
:102F60000029F3D1226802F1140353E8003F23F053
:102F70000103143242E800310029F3D1236B012B05
:102F80001CD023685B6913F0400F2ED0226802F139
:102F9000140353E8003F23F04003143242E80031A9
:102FA0000029F3D1A36BB3B1154A1A65A06BFEF7E4
:102FB0009EFE18B3A06B036D98471FE0226802F1D4
:102FC0000C0353E8003F23F010030C3242E80031B9
:102FD0000029F3D1D5E70023E385202284F83E20A1
:102FE00023632046FEF766FB08E00023E3852022EA
:102FF00084F83E2023632046FEF75CFB002010BDD2
:103000000530000808B5806B0023C385202280F8B6
:103010003E200363FEF74EFB08BD704790F83E303C
:10302000DBB2222B67D18368B3F5805F4DD0826A13
:10303000B3F5805F04D0002B54D10369002B51D12C
:1030400003685B681370836A01338362C38D9BB22C
:10305000013B9BB2C385002B4FD100B583B0026802
:10306000D36823F02003D3600268D36823F480730D
:10307000D3600268536923F001035361202380F871
:103080003E30036B012B33D100230363026802F14E
:103090000C0353E8003F23F010030C3242E80031E8
:1030A0000029F3D103681A6812F0100F06D000222D
:1030B00001921A6801925B680193019B818DFFF771
:1030C000ACFF002003B05DF804FB0269002AAED11A
:1030D000826A03685B68C3F308031380836A023360
:1030E0008362B3E703685B6803F07F031370AAE7AA
:1030F000FFF7F3FEE5E7022070470020704700006D
:1031000010B582B0044602681368D068516913F0A4
:103110000F0F09D113F0200F0CD010F0200F09D0A1
:103120002046FFF77BFF16E011F0010115D110F4E6
:10313000907F12D1216B012979D013F0800F03D039
:1031400010F0800F40F0108113F0400F03D010F00A
:10315000400F40F00D8102B010BD13F0010F06D0FA
:1031600010F4807F03D0226C42F00102226413F03D
:10317000040F04D019B1226C42F00202226413F051
:10318000020F04D019B1226C42F00402226413F041
:10319000080F07D010F0200F00D119B1226C42F0B7
:1031A00008022264226C002AD5D013F0200F02D02E
:1031B00010F0200F29D123685B6903F04003226CD3
:1031C00012F0080F00D163B32046FFF7B5FC236867
:1031D0005B6913F0400F20D0226802F1140353E81A
:1031E000003F23F04003143242E800310029F3D1BC
:1031F000A36B73B1604A1A65A06BFEF778FD0028D7
:10320000A9D0A06B036D9847A5E72046FFF706FFFE
:10321000D1E72046FFF763FE9DE72046FFF75FFEFC
:1032200099E72046FFF75BFE0023236493E713F042
:10323000100F82D010F0100F3FF47FAF00230193E6
:103240001368019353680193019B536913F0400F76
:1032500050D0A26B13685B689BB2002B3FF47BAF2E
:10326000A18D99427FF677AFE385D369B3F5807F6F
:1032700037D0226802F10C0353E8003F23F4807337
:103280000C3242E800310029F3D1226802F1140324
:1032900053E8003F23F00103143242E800310029D3
:1032A000F3D1226802F1140353E8003F23F04003F6
:1032B000143242E800310029F3D1202384F83E3053
:1032C00000232363226802F10C0353E8003F23F03C
:1032D00010030C3242E800310029F3D1A06BFEF755
:1032E000BCFCA18DE38D9BB2C91A89B22046FFF7C1
:1032F00094FE30E7A18DE38D9BB2C91A89B2E38DAC
:103300009BB2002B3FF427AF00293FF424AF226883
:1033100002F10C0353E8003F23F490730C3242E8AF
:1033200000300028F3D1226802F1140353E8003F73
:1033300023F00103143242E800300028F3D12023A7
:1033400084F83E3000232363226802F10C0353E823
:10335000003F23F010030C3242E800300028F3D184
:103360002046FFF75AFEF6E62046FFF713FCF2E68A
:103370002046FFF7A5FDEEE6392F000808B5806B63
:10338000036B012B02D0FFF7A9FD08BD818D490811
:10339000FFF743FEF9E708B50346806B1B681B681F
:1033A00013F4807F2BD10023C385026802F10C0344
:1033B00053E8003F23F480730C3242E800310029C7
:1033C000F3D1026802F1140353E8003F23F0010334
:1033D000143242E800310029F3D1026802F11403EB
:1033E00053E8003F23F04003143242E80031002943
:1033F000F3D1202380F83E30036B012B05D0036B03
:10340000012B0FD0FFF769FD08BD026802F10C0324
:1034100053E8003F23F010030C3242E8003100294A
:10342000F3D1ECE7818DFFF7F8FDEDE7816282854E
:10343000C28500230364222280F83E2080F83C30BD
:10344000036923B10268D36843F48073D3600268D0
:10345000536943F0010353610268D36843F02003CA
:10346000D3600020704708B590F83E30DBB2202BC7
:103470000DD171B17AB190F83C30012B0DD0012300
:1034800080F83C3000230363FFF7D0FF00E0022008
:1034900008BD0120FCE70120FAE70220F8E7000060
:1034A00030B583B0044613468162828500250564E9
:1034B000222280F83E20826B2048D063A26B2048F5
:1034C0001064A26B1F48D064A26B156520680A4681
:1034D000011DA06BFEF78CFB019523681A68019211
:1034E0005B680193019B84F83C5023695BB12268BF
:1034F00002F10C0353E8003F43F480730C3242E8BE
:1035000000310029F3D1226802F1140353E8003F8F
:1035100043F00103143242E800310029F3D122685C
:1035200002F1140353E8003F43F04003143242E831
:1035300000310029F3D1002003B030BD97330008DB
:103540007D330008E12E000808B590F83E30DBB26C
:10355000202B0DD171B17AB190F83C30012B0DD0F8
:10356000012380F83C3000230363FFF799FF00E05C
:10357000022008BD0120FCE70120FAE70220F8E75D
:1035800010B40A6850F8223023F0010340F82230CA
:103590008B68082B25D000244A6822431343CA684D
:1035A00013430A6913434A691343CA6913430A6AF6
:1035B00013434A6A13438A6A1343CA6A13430A6B62
:1035C00013438A691A43CB6B1A43096850F82140A8
:1035D000054B2340134340F8213000205DF8044B95
:1035E00070474024D8E700BF8000F0FF10B50132DB
:1035F00050F8223003F0404C0B684C6843EA041347
:103600008C6843EA0423CC6843EA04430C6904F160
:10361000FF3E43EA0E534C69A4F1020E43EA0E63E7
:1036200089690B434CEA030340F82230002010BDA7
:10363000B3F5804F05D06FF0704340F82230002082
:10364000704730B450F82230094C1C400B684D686C
:1036500043EA05138D6843EA05238D692B43C96846
:1036600043EA01431C4340F82240002030BC70472D
:103670000000F0CF08B51CF027FE01F071FC08BD7A
:1036800008B5FFF7F7FF002243F2881109F042F86E
:10369000FFF7F0FF00F040F9044B1860FFF7EAFF76
:1036A00001F072F9024B186008BD00BF041200203F
:1036B000081200200D2803D8024B53F82000704751
:1036C0000020704740D208080E2803D8024B53F858
:1036D000200070470020704704D208080D2803D846
:1036E000024B53F82000704700207047CCD10808E7
:1036F0000D2803D8024B53F8200070470020704774
:1037000034C808082DE9F0478CB004460D46084639
:10371000FFF7EEFF5A4BA3FB00235B09C3EB031239
:10372000A0EB82020092574A202104A81EF0FAFE64
:103730002846FFF7BFFF07462846FFF7C5FF81462B
:10374000204604F073FA04464F4A002108F068FE50
:103750003C2242F26401204605F04AFA00224B491D
:10376000204608F0F7FC20224949204608F0F2FCE8
:1037700001224849204608F0EDFC802246492046B7
:1037800008F0E8FC002307224449204601F048FDE8
:10379000022D6FD8204624F033FC8246404924F0A5
:1037A0003BFC4FF00208CDF8088000260196012569
:1037B00000952B4632463146504614F04FFA2046CB
:1037C00024F04EFF8246394625F0F6FB029501961D
:1037D00000952B462A463146504614F03FFA3246B1
:1037E0003049504608F0B6FC204624F039FF074621
:1037F000494625F0E1FB32462B49384608F0AAFC41
:103800000295019500952B462A463146384614F01C
:1038100025FA204624F024FF074604A925F0CCFB16
:1038200032462249384608F095FCCDF808800196CA
:1038300000952B4642464146384614F00FFA204682
:1038400024F0DEFB05461A4924F0E6FB42F278013B
:10385000284605F09DF9334632460521284605F0F5
:103860002FFA4FF40031284604F0ECF920460CB052
:10387000BDE8F0878021204604F05CFA8AE700BFAB
:1038800089888888B0C90808FFFF0F003C12002013
:10389000341200202C12002024120020B538000819
:1038A000180000201C120020141200200C1200200E
:1038B000D800002008B501F093FC08F0E4FF01F007
:1038C00037FA08BD70B50E460146104B186808F06F
:1038D000BFFF0446002108F0BBFF054666B1012189
:1038E000204604F027FA0A49284624F095FB0121D6
:1038F000204607F02AFA70BD0121204604F026FA7E
:103900000449284624F088FBF5E700BF5412002044
:103910000C000020180000202DE9F8430646DFF8CF
:10392000E081674BC8F80030664F674B3B60674CDF
:1039300020461EF050FE042120461EF0EFFFFF211E
:1039400020461FF045F81D234FF0000163F30401EA
:103950003B2262F34A1163F3CF2120461FF032F875
:1039600047F6FF7120461FF0EBF8042120461FF0B8
:1039700014F8574D28461EF02EFE002128461FF051
:1039800027F85449284614F0E7F85349284614F01C
:10399000D9F80121284614F0E9F8504B1988284637
:1039A0001FF0F2F8142128461EF0F7FF4C4D284670
:1039B0001EF011FEFF2128461FF00AF844F64C299C
:1039C000494628461EF0FEFF464D28461EF003FEDF
:1039D000FF2128461EF0FCFF494628461EF0F2FF54
:1039E000414D28461EF0F7FD662128461FF08CF851
:1039F000662128461FF05BF83C4D28461EF0EBFD83
:103A0000396828461FF087F84FF6FF79494628465F
:103A10001FF073F8364D28461EF0DDFDD8F8001073
:103A200028461FF078F84BF2975128461FF065F8AA
:103A3000304D28461EF0CFFD396828461FF06BF840
:103A4000494628461FF059F8304604F0EFF82A4D51
:103A500028602A4A002108F0E3FC2F681CF034FC9F
:103A60001CF038FC06461CF02FFC1CF04BFC82B20C
:103A7000143A12B23146384605F0BAF814212868D3
:103A800005F064F84FF480322146286808F062FBA4
:103A90000121286813F052FA002405E02146164B54
:103AA0001868FFF72FFE01342046FFF703FE0028B9
:103AB000F4D10121FFF706FF0F4B1868BDE8F8832A
:103AC000942109084C120020B483090844120020F4
:103AD0003C12002080D2080878D208086C3A0020F6
:103AE000341200202C120020241200201C1200206E
:103AF000141200200C12002054120020FFFF0F00AF
:103B00005012002004320B0413FA81F1084B1940C3
:103B10004FEA004C1CFA80F01840401AD20800FB13
:103B200002F201EB521101EA030040EA1040704733
:103B30001FF8E00708B589B224F066FC08BD000054
:103B400008B50180024B186805F05EFC08BD00BF97
:103B5000FC12002010B51B4B1B78002B2ED11A4CE9
:103B6000216005F051FC2368184A126832F83310BE
:103B70000C2915D9164A12689A1A052A10D915481F
:103B800002680132026012480360012A08D9114A12
:103B900000201060104A1360104A1368013313604C
:103BA000032903D80E4A13680133136001F58071AD
:103BB00089B20C4B186824F027FC10BD05F024FCDA
:103BC000FBE700BFB8120020E012002060120020C6
:103BD0001401002058120020D4120020D812002016
:103BE000D0120020E812002008B5044B00221A7001
:103BF000034B186804F060FF08BD00BFB812002036
:103C0000FC12002010B50C4C2368013323600B4AD2
:103C1000A2FB03125209C2EB021081005B1A084991
:103C20000848006825F005FA01222168064B18684B
:103C300021F054FB10BD00BFCC1200208988888879
:103C4000B0C90808EC120020E412002070B5044648
:103C50000D46164608F046FD32462946204608F035
:103C600049FD32462946204608F02CFD32462946B9
:103C7000204608F02FFD70BD2DE9F04103F0D6FF7E
:103C8000464D2860022104F016F82021286804F02F
:103C900012F8DFF80C8142460021286808F0C0FBCA
:103CA00042F264021146286804F0A2FF032128684A
:103CB00006F096FB286803F0B9FF04466FF0130185
:103CC00004F044FF1CF000FB1CF004FB06461CF053
:103CD000FBFA1CF017FB82B2283212B231462046A2
:103CE00004F086FF4FF48051204603F0E4FF0022E9
:103CF0004FF0FF31204608F00DFD0022114620460E
:103D000008F02CFD002211462046FFF79FFF0C21F2
:103D1000204606F04AFB286803F088FF0746424623
:103D2000002108F07DFB0221384603F0C4FF28681B
:103D300003F07CFF06464246002108F071FB022199
:103D4000304603F0B8FF1CF0BFFA1CF0DBFA024665
:103D500042F26401384604F04BFF0021384604F07B
:103D6000F5FE1CF0B1FA1CF0CDFA82B2283A12B27C
:103D700042F26401304604F03BFF1CF0A5FA1CF04F
:103D8000C1FA81B2143109B2304604F0DFFE28686E
:103D900006F080F82046BDE8F08100BF0013002047
:103DA000FFFF0F0038B5044624F02AF905462A49DA
:103DB00024F032F91CF088FA1CF08CFA01462846EF
:103DC00004F0E6FE00231A460221284604F078FF9C
:103DD0004FF40031284603F035FF204624F010F957
:103DE00005461E4924F018F91CF06EFA1CF072FA10
:103DF0000146284604F0CCFE00231A460521284639
:103E000004F05EFF4FF40031284603F01BFF20460C
:103E100024F0F6F80546124924F0FEF800231A466D
:103E20000421284604F04CFF4FF40031284603F0EB
:103E300009FF204624F0E4F804460A4924F0ECF88F
:103E400000231A460621204604F03AFF4FF40031C1
:103E5000204603F0F7FE38BD08010020FC000020DA
:103E60006C0000207800002010B503F0DFFE04464F
:103E7000164A002108F0D4FA42F2D171204604F02B
:103E80009FFE0021204613F059F802231A46032111
:103E9000204613F07FF8204624F0B2F80C4924F0B5
:103EA000BBF8204624F0ACF80A4924F0B5F82046C7
:103EB00024F0A6F8084924F0AFF8204624F0A0F832
:103EC000064924F0A9F8204610BD00BFFFFF0F00EF
:103ED000A8000020B4000020C0000020CC0000207A
:103EE0002DE9F84303F0A2FE0446384A002108F009
:103EF00097FA42F2D171204604F062FE0121204679
:103F000013F01CF802231A460021204613F042F851
:103F1000204624F0A5FB2E4D2860DFF8C480002247
:103F2000D8F8001008F032FC45F26D27002239461F
:103F3000286808F023FCD5F80090264E3068FFF77B
:103F4000B9FB0146484625F037F8D8F80030B3F9F8
:103F5000081001EB410101EBD17141F34F012868D9
:103F600004F02EFE204624F07BFB1B4D2860DFF87A
:103F700074800022D8F8001008F008FC00223946AE
:103F8000286808F0FBFB2D683068FFF79DFB0146B1
:103F9000284625F011F8204624F062FB0F4D2860DA
:103FA0000022D8F8001008F0F1FB002248F6374153
:103FB000286808F0E3FB2D683068FFF78FFB0146A7
:103FC000284624F0F9FF2046BDE8F883FFFF0F00E4
:103FD000F8120020BC120020F4120020F012002081
:103FE000C0120020C41200202DE9F04184B003F07B
:103FF0001DFE06467E4A002108F012FA42F2D171F7
:10400000304604F0DDFD00220821304608F062FB56
:10401000784A7949304613F0C7FD304623F0F0FF67
:104020000746764923F0F8FF012402940025019504
:104030000094234622462946384613F00FFE3046A8
:1040400023F0DEFF07466E4923F0E6FF0294019558
:104050000094234605220221384613F0FFFD304626
:1040600023F0CEFF0746674923F0D6FF029401955F
:104070000094234602222146384613F0EFFD2B46DA
:1040800007226149384601F0CBF8304619F0DEFDD1
:104090005E4F3860DFF89C81009543462A462946EA
:1040A00019F02AFE00955A4B2A460321386819F068
:1040B00023FE0821386803F0C5FD029401950094A1
:1040C000234603222146386813F0C8FD2B460722F9
:1040D0005049386801F0A4F80221386803F0B2FDB5
:1040E000D8F80010C1F38A21386804F051FD304639
:1040F00023F086FF0746484923F08EFF029401957E
:104100000094234604222146384613F0A7FD2B468F
:1041100007224249384601F083F80221384603F06D
:1041200091FD304626F0D2FE3D4F38602A4664218C
:1041300008F04CFB0221386803F084FD0321386845
:1041400004F03EFD029401940094042322460321CE
:10415000386813F083FD4FF440323249386808F074
:10416000F5FA4FF440322946386808F0DAFA4FF48D
:10417000403214213868FFF769FD4FF40032022104
:10418000386808F0DCFA4FF4003245F2DF41386855
:1041900008F0C0FA4FF400324AF23E31386808F0B5
:1041A000C7FA2A462946386808F0E0FA304624F073
:1041B00057FA1D4F38602A461C4B196808F0E6FA7A
:1041C0002A4648F63741386808F0D8FA184938685E
:1041D00024F0F2FE02940194009423460522022169
:1041E000386813F03BFD304604B0BDE8F08100BFF5
:1041F000FFFF0F0088D2080890D208086000002056
:104200002400002054000020894D00086412002082
:104210003C000020294E000830000020754D0008A9
:10422000E4120020F0000020EC120020C412002054
:10423000BCC908084800002010B50C465A3000B22E
:104240001DF0B8F943F6FF7304FB0030C01310BD36
:1042500010B50C4600B21DF0ADF943F6FF7304FB38
:104260000030C01310BD00002DE9F04FB9B0044676
:1042700000F0BAFF132806D012280DD0182810D04D
:1042800039B0BDE8F08F1CF01FF81CF03BF8014678
:10429000204601F021F8F3E70121204601F034F82F
:1042A000EEE7204600F09CFF0546204601F002F8AC
:1042B000029040F262420021284607F0A8FDC0B2F9
:1042C0000128DDD9AC8A284604F05EFD00EBD070F1
:1042D00004EB60039EB2ADF81430EC8A284604F07B
:1042E0005AFD00EBD07004EB60039AB29146ADF832
:1042F00016300AA80BF07CFDFF238DF82B30B84B4D
:10430000186824F018F94D2303FB00F0041240F361
:104310000F230093002306E0621D38A901EB43013F
:1043200021F8802C0133132BF6D9002537E0002724
:1043300006E0082704E0042702E0022700E0142733
:1043400000240CE0143338AA02EB430333F8802C2A
:1043500008FB00F002EB502223F8802C0134BC4211
:104360001CD2A04B1A68A04B1B6803EBC20333F8A6
:1043700015804FF4B47004FB00F0B0FBF7F0B421EB
:104380000844FFF759FFB43005EB8503A3EB57034F
:104390001B19D7D4132BD6DD143BD4E70135032DDD
:1043A0000CD8032DC3D801A353F825F03F430008D0
:1043B00033430008374300083B430008894B196822
:1043C0008A4B1B68A1EB030CBCF1140F01D94FF011
:1043D000140C4FF0000BCA46CDF80CC0DDF800906D
:1043E0006AE04F2C00F2B8804EF6DF63ADF82C3057
:1043F00001273D4421462846FFF71EFF83B2009364
:10440000F318ADF8183021462846FFF721FF504435
:10441000ADF81A0049462846FFF70EFF82B2019216
:10442000B318ADF81C3049462846FFF711FF504439
:10443000ADF81E00A5EB4705093549462846FFF7AC
:10444000FBFE1FFA80F806EB0803ADF82030494662
:104450002846FFF7FDFE5044ADF8220021462846CD
:10446000FFF7EAFE87B2F319ADF82430214628465B
:10447000FFF7EEFE5044ADF82600042306A90A46D5
:104480000AA9029C20460BF007FD009BF31AADF829
:104490001830019AB31AADF81C30A6EB0808ADF835
:1044A0002080F71BADF82470042306AA0AA9204631
:1044B0000BF0F2FC0BF1010BBBF1130F3FF6E0AE7A
:1044C0000BEBCB055A354A4B18685844494B1C68CE
:1044D0004949A1FB0423DB0803EB8303A4EB43035B
:1044E000464F37F813200244A1FB02C31B0903EB1C
:1044F0008303A2EB83030134A1FB04C2D20802EBC5
:104500008202A4EB420237F812201044A1FB0042C1
:10451000120902EB8202A0EB820238A800EB4202F1
:1045200032F8802C00EB430333F8804C0398C0F141
:10453000140303FB04F400FB0244A1FB041424094C
:104540002F4B1B78002B3FF44CAF2E4B33F91B4005
:104550004C44E70901D144E701271BF0B5FE1BF0ED
:10456000B9FE4000284B83FB0023A3EBE073A3427A
:1045700004D24FF6FF73ADF82C303AE7642C12D812
:10458000C4EB0422A2F59F42303A1B4BA3FB02323C
:10459000C2F307124EF6DF6146F65E40FFF7B2FA4D
:1045A000ADF82C0025E7C4EB0423A3F5C748A8F118
:1045B0001C081BF089FE1BF08DFE4000124B83FB94
:1045C0000023A3EBE073643BB8FBF3F2D2B246F6F0
:1045D0005E414FF0FF30FFF795FAADF82C0008E789
:1045E000E8120020E012002060120020D412002007
:1045F000D0120020D8120020CDCCCCCCC0D20808DC
:10460000B8120020681200205655555510B523F0F9
:10461000F7FC0446204B1B68012B32D0022B0BD039
:10462000A3B91E4923F0F8FC1D4B1E4A1A601E4B0D
:104630004FF4DE721A6009E01C4923F0EDFC184BC0
:104640001B4A1A60184B40F2FF321A6000212046C4
:1046500023F062FF00231A460921204604F030FBB4
:1046600000230C221349204600F0DAFD4FF40041EC
:10467000204603F020FB0221204603F0E3FA204607
:1046800010BD0D4923F0C8FC054B0C4A1A60064BBF
:104690004FF443721A60D9E7BC1200208400002056
:1046A00060120020540B09085C1200209C000020BE
:1046B000FCD20808934D000890000020F4F208088E
:1046C00010B503F0B3FA04460D4A002107F0A8FE26
:1046D000FA21204604F074FA1221204603F0EBFA86
:1046E00000231A460749204600F09AFD204604F0B0
:1046F000E3F92046FFF78AFF034B1860204610BD00
:10470000FFFF0F0069420008E812002070B503F0B7
:104710008DFA0446204A002107F082FE42F2D1724F
:1047200042F26401204604F063FA0121204612F0AF
:1047300005FC02231A461946204612F02BFC0022E3
:104740000821204607F0DEFF204623F089FF0546BA
:10475000124924F031FC0022114B1968284608F058
:1047600015F848F6374600223146284608F006F884
:10477000204603F05BFA05460222142104F038FAC1
:1047800000223146284607F0C5FF00221146284680
:1047900007F0E4FF204670BDFFFF0F00C4C9080802
:1047A000C412002010B5044608F027F808F065F898
:1047B000411E204608F0A9F910BD08B51BF084FD84
:1047C00000F0CEFB08BD00002DE9F04190B004469A
:1047D0000021574B1960574B1960574B19600A4617
:1047E000564B186820F07AFD5549564B186824F04E
:1047F000E3FB554B1868A04200F08880431C534AE5
:10480000A2FB031222F0010101EB52029B1AA34208
:104810007FD000260021FFF755F84B4D2C60012179
:104820002046FFF74FF84A4B1C682868FEF742FF06
:104830000146204624F0C0FB464B1C682868FEF762
:1048400043FF0146204624F0B7FB434B1C68286811
:10485000FEF744FF0146204624F0AEFB3F4C002209
:104860004FF4FA71206807F0EFFB68461BF01CFF5D
:10487000236800934FF4FA730A93394B0693002E82
:1048800049D01BF021FD1BF025FD00EBD07040103E
:1048900040420023079308930990324B0193324B17
:1048A000039368461BF048FF304B06932B4E33684A
:1048B00000934FF4FA750A954FF4807407940894A6
:1048C00080230993DFF8B080CDF804800027039798
:1048D00068461BF031FF264B1868FFF797FE3060E3
:1048E0006422294607F088F8224B06933368009328
:1048F0000A956FF063030B93402307930893099481
:10490000CDF80480039768461BF016FF10B0BDE891
:10491000F08101267EE71BF0D7FC1BF0DBFC00EBEF
:10492000D07040F34F000023079308930990B4E739
:10493000E0120020CC120020DC120020E412002043
:10494000BCC90808EC120020BC120020ABAAAAAA1D
:10495000F8120020F4120020F0120020E8120020CB
:104960004D0802087D49000827CA000849060208C8
:10497000FC120020BF080208353B000808B509B248
:1049800004F0CCF808BD00002DE9F04395B0A34B2E
:10499000A34A1A60A34BA44A1A60FFF76DF90446B4
:1049A000FFF700FA2046FFF79BFA80462046FFF704
:1049B0005BFA07462046FFF717FB06462046FFF73F
:1049C0007FFEDFF8B892C9F800002046FFF79EFE90
:1049D0000546964A9649204613F0E6F8002206213D
:1049E000204613F0F5F80124029402230193009469
:1049F000234600220321404613F030F90294042399
:104A000001930094234600220321384613F026F92F
:104A10000294062301930094234600220321D9F82F
:104A2000000013F01BF9029408230193009423461D
:104A300000220321304613F011F902940A23019356
:104A40000094234600220321284613F007F9002290
:104A50004FF47A7177481EF0ABF8774B18601EF070
:104A6000A5F9764B1C7000224FF4FA5174481EF0E1
:104A70009FF821461EF0ADF904A81BF015FE714BFE
:104A80000A93714B059300242EE01BF01DFC1BF0D4
:104A900021FC0B900C9005230D936C4B33F81420E4
:104AA0006B4BA3FB02139B09C82101FB13239BB291
:104AB000C3F17F4303F57F0303F57843F8330F9386
:104AC000644BA3FB02135B094FF4FA7101FB132241
:104AD00092B202F6C4120E925F4B03EB44030493AE
:104AE00004A81BF029FE0134132CCED940F6B832AD
:104AF0004FF47A71404606F07FFF40F6B8324FF42B
:104B00007A71384606F078FF40F6B8324FF47A7181
:104B1000304606F071FF40F6B8324FF47A712846FD
:104B200006F06AFF4D4C40F6B8324FF448712068E9
:104B300006F062FFDFF844814FF4FA620021D8F8F2
:104B4000000006F059FF464B0A93236804934FF484
:104B50007A730E93A3F57A630F9301230B930C934F
:104B60004FF480770D973F4B05930025079504A8D8
:104B70001BF0E2FDFFF721FE23F042FA06463A4918
:104B800023F04AFA3046FFF70DFEFFF716FE23F03A
:104B900067FD0446354924F00FFA2A4602212046D3
:104BA00007F004FE2A461F4B1968204607F0EEFD69
:104BB0002A460821204607F0F1FD4FF4FA624FF42F
:104BC000FA71204607F040FA00952B460922D8F8E2
:104BD0000010304605F07EF900956FF013031122A6
:104BE0003146204605F076F9214B0A9304964FF49E
:104BF000C8730E93A3F548630F930B970C970A2382
:104C00000D931C4B079304A81BF096FD1A4C2068CB
:104C100005F040F9206815B0BDE8F083C41200200B
:104C200094210908C0120020B4830908A0D2080802
:104C3000BCD20808053C0008C8120020B8120020A9
:104C4000E93B0008F9080208413B0008C0D2080807
:104C50001F85EB51D34D621068120020E81200202E
:104C60004D080208353B0008E4000020D0C90808C0
:104C70001708020827CA000800130020FC120020B1
:104C800070B590B001241E4B1C701E4D1E4B1B684E
:104C90002B6068461BF008FD2A681C4B1B68591ED8
:104CA0000792089209911A4901911A4909680091DD
:104CB0009B1A4FF47A7202FB03F3174AA2FB0323F9
:104CC0001B090A9300250D95144B039368461BF0AE
:104CD00033FD134B18681EF06EF8124B1E68124B12
:104CE0001868FEF705FD02462946304620F07BFB9A
:104CF00021460E4B186803F01DF810B070BD00BFC0
:104D0000B9120020E0120020DC1200205C1200200A
:104D1000553B0008FC12002089888888B94D00089E
:104D2000C8120020E4120020BC12002064120020EF
:104D300008B5FFF749FDFFF7A3FF08BD08B50B4B0A
:104D40001B6840B1581C022808D8094B1B784BB18E
:104D5000FFF7EEFF08BD1BB1581EF6E70020F4E791
:104D60000220F2E7FFF730FDF4E700BFBC1200209D
:104D7000B912002008B500F037FA072800D008BDA6
:104D80000120FFF7DBFFFAE708B50020FFF7D6FFA9
:104D900008BD10B501F06CF901F0F9F904460128DD
:104DA00002D0022C04D010BD0120FFF7C7FFF8E7A6
:104DB0000020FFF7C3FFF6E708B50120FFF7BEFFAD
:104DC00008BD000010B500220F4B1A700F4B186879
:104DD0000F4908601A600F4C0F4920681BF07EFCD9
:104DE000206804F011FB4FF480710C4B186823F01D
:104DF0000BFB0B4B18681DF0D9FF0121094B1868FC
:104E000002F0A4FF10BD00BFB9120020E012002084
:104E1000DC120020FC120020553B0008E8120020A4
:104E2000C81200206412002008B500F0D9F9012151
:104E300002F0A6FF10B1FFF723FF08BDFFF7C2FF86
:104E4000FBE710B582B00446B1F90000B1F902C029
:104E5000B1F904E0B1F9063000929BB21FFA8EF26C
:104E60001FFA8CF180B22AF0D3FD20461BF071FAB4
:104E700002B010BD08B528F0A5FB08BD38B5FFF796
:104E8000F9FF0C4D4FF4965300220B4928461BF0B6
:104E900073F90A4C20461BF045F94FF4F073238058
:104EA0004FF4A0736380064B6361E56020461BF0FE
:104EB00071F938BDD03800205013002004130020B1
:104EC000434E00080E4B93F92030002B08DB0D4BAE
:104ED0001B880B800C4B1B884B8000238B73704707
:104EE000074A9389C3F5F0731BB206480380B2F9F1
:104EF0001620054802800B804A8001238B7370477F
:104F0000A8010020EE380020EC38002010B5064C37
:104F10002368984794F93030002B00DA10BD03481D
:104F2000FCF700FDFAE700BFA8010020E8C9080867
:104F300010B5FFF7EBFF074C20461BF022FA0123C8
:104F40002370054B636020461BF030FA034B18605A
:104F500010BD00BFF0380020C54E000810390020F9
:104F600008B5034608B1186908BD1BF0ADF9034642
:104F70000028F8D1F8E708B5034608B1586908BD1C
:104F80001BF0A2F903460028F8D1F8E708B503465C
:104F900008B1D86908BD1BF097F903460028F8D17D
:104FA000F8E708B5034608B1186A08BD1BF08CF98C
:104FB00003460028F8D1F8E708B5034608B1986819
:104FC00008BD1BF081F90346F9E7806848B1837E8C
:104FD0008B4205D9C06801EB410100EB81007047AD
:104FE00000207047037E13F0040F1ED110B5044655
:104FF000037A233B012B01D8012010BD4FF48041DF
:10500000406802F0AFFE0028F7D0237A113BDBB2F4
:105010001B2B94BF0021012149B9064A22FA03F350
:1050200013F0010FE9D00846E7E700207047084673
:10503000E3E700BFFF270F0B10B50C4608B100686F
:1050400003E04B68186800E0006810B10369002BAA
:10505000FAD060B1036963B10023E36003692146BC
:105060009847237E13F0010F05D1012010BD0120C8
:10507000FCE70120FAE70020F8E7F8B5064600F063
:10508000F7FF58B1006883680BB1317A9847337ED7
:1050900013F0020774D113F0010F5BD10021706887
:1050A000FFF793FF0446002511E06368F36023686F
:1050B00030469847337E13F0020763D113F0010F97
:1050C00048D1013529467068FFF77FFF04467CB15F
:1050D0002368002BF5D0237A94F90820002AF0DA0F
:1050E000802BE2D023F08003327A9342E9D1DCE7CF
:1050F00031460020FFF7A0FF074620B1002170686D
:10510000FFF763FF0446002511E06368F36023683E
:1051100030469847337E13F002021BD113F0010F83
:1051200032D1013529467068FFF74FFF04467CB144
:10513000012F0DD12368002BF3D0227A94F9083087
:10514000002BEEDB002AE0D0337A9A42E9D1DCE78B
:10515000012F01D03846F8BD73685B68002BF9D089
:105160003046FFF73FFF0028F4D073685B68736038
:105170003046FFF782FF07460128EBD00027E9E71A
:105180000127E7E70127E5E71746E3E718B310B57E
:1051900088B0019002908DF80C10002304930592C2
:1051A0009DF81C2063F300028DF81C20D2B263F33B
:1051B00082028DF81C20D2B263F341028DF81C20CC
:1051C000064C2368069301A82060FFF756FF069B54
:1051D000236008B010BD0120704700BF14390020C3
:1051E0000068704740687047007A00F07F007047A1
:1051F00000697047C0687047084B1B6804E01A7E5E
:1052000042F001021A765B6933B15A688242F6D0E5
:105210001A688242F7D1F2E7704700BF14390020C4
:105220002DE9F04104460F4616461D4602F0D4FF14
:10523000A268937E01339376D4F8088098F81A1008
:1052400001EB41018900D8F80C001CF011FCC8F8F2
:105250000C00A368DA680AB39B7E03EB43039B0050
:105260000C3BD750A268D368917E01EB41018900C5
:105270000C390B441E72A268D368927E02EB420284
:1052800092000C3A13445D60A368D8689B7E03EBE0
:1052900043039B000C3B1844BDE8F081FEE708B5D2
:1052A000037A013BDBB20F2B02D8FFF7A1FF08BD49
:1052B0000020FCE708B5027AA2F11403DBB2022B4E
:1052C00005D9182A03D0172A01D0192A02D1FFF7CD
:1052D0008FFF08BD0020FCE7037A132B00D0704736
:1052E00010B50C46FFF784FFB0F90030A342B8BFF9
:1052F0002346038010BD08B5037A2C2B02D1FFF79B
:1053000077FF08BD0020FCE7037A122B00D070471E
:1053100010B50C46FFF76CFF0378A34200D204706F
:1053200010BDF8B5054600201BF064F804460026C1
:10533000374605E02646274620461BF05BF8044624
:105340005CB1204600F09AFE236DAB42F4D10228F6
:105350000ED00428EED02646EEE70FB13846F8BD51
:105360000EB13746FAE700201BF044F80746F5E790
:105370002746F3E7037E13F0010F69D12DE9F047CB
:10538000064689469046C5684FF0010A0027E5B1F8
:1053900001234FB32BB129463046C047054687420B
:1053A0003AD0002DF3D0286802F0E8FC10F0800F0E
:1053B000EDD12C680CB30121204602F0D3FCB0B92A
:1053C000204607F01AFA0446F4E7337E13F0080F7C
:1053D00000D10FBBBAF1000F1ED03046C8470546BA
:1053E0004FF0000A5346D4E7B5B12F46D2E701216A
:1053F000204602F0B7FC0028C9D1F368AB420BD0BD
:1054000083B11C683046FFF78CFF02460F2120460F
:10541000FFF7BCFE012801D0BDE8F087F3681868EB
:1054200003F0F2FFF5602C683046FFF77AFF024682
:105430000E212046FFF7AAFE0128EDD1F368186877
:1054400003F0E2FF3369002BE6D030469847E3E7EC
:105450007047000008B51C2101481BF0E1FF08BDA2
:10546000F83C0020014B1868704700BF1839002035
:1054700008B5024A0249FFF77DFF08BDBD140208C6
:10548000AD14020808B5024A0249FFF773FF08BDD0
:10549000C5140208B514020838B50446037EC3F3E8
:1054A000C00543F008030376DBB213F0040F06D106
:1054B000FFF7DEFF237E65F3C303237638BDFFF7D6
:1054C000E1FFF7E7A8B370B50C4605461BF0EEFF09
:1054D000014639B10B68A3421ED028461BF0EEFFEF
:1054E0000146F6E7204602F051FC30B1A3689B6804
:1054F0001BB1DB681B68A3420FD0A36883B1A3680C
:105500009D6028461BF0B3FF064668B1046028463C
:105510001BF0CCFF864208D070BDFFF7BDFFECE763
:10552000204602F059FEEAE7FEE72846FFF7B4FFFF
:10553000F2E7704770B5064602F028FC002849D013
:105540000546C36813B11B68B34213D0EB6813B1AF
:105550001B68B34230D028461BF0A8FF0446002C3D
:1055600038D02368B3422AD0214628461BF0A6FF34
:105570000446F4E7037E13F0010F03D0037E23F00B
:105580000103037628461BF091FFEB68834203D0AA
:105590002846FFF781FFD9E728461BF08BFFEB6811
:1055A0008342F5D11C682846FFF7BBFE02460F2157
:1055B0002046FFF7EBFDC9E70023EB60CBE7214670
:1055C00028461BF082FF20461CF008F9B3680BB197
:1055D00000229A6070BD18B1C06808B100687047B9
:1055E000704700B583B00191FFF7F5FF30B101AA14
:1055F0000D21FFF7CBFD03B05DF804FB0120FAE7B6
:10560000F8B170B50446037EC3F340038B4213D058
:10561000037E61F341030376FFF7DDFF054658B1D2
:10562000E3681E682046FFF77CFE02460E213046E6
:10563000FFF7ACFD012800D070BD284603F0E4FE62
:10564000FAE77047002845D0F8B5054602F09EFB02
:10565000064618B1037E13F0010F00D0F8BD0021FB
:10566000FFF7CEFF30461BF021FF0446002CF5D09B
:105670002368AB4205D0214630461BF01FFF04468D
:10568000F4E7F36883B11F68AF420DD03046FFF7EF
:1056900048FE02460F213846FFF778FD0128DDD18C
:1056A000F368186803F0B0FEF46033690BB130465C
:1056B0009847F3681C683046FFF733FE02460E2118
:1056C0002046FFF763FD0128C8D1F368186803F08E
:1056D0009BFEC3E7704718B1007EC0F340007047DF
:1056E0000020704708B51BF048FF08BD437913F050
:1056F000020F1BD0002343628362C362427963F3CB
:1057000000024271436483640383438390F8402022
:1057100063F3030280F840208383C3838387C387B6
:10572000427963F341024271014A1360704700BF3E
:105730001C390020407810F0020F02D0024B0022EA
:105740001A60C0F3400070471C39002038B5044689
:10575000437813F0080F08D0002303624362036408
:105760004364427863F3C3024270206A1B4B1860A3
:10577000A56A68B11A4B1A680821FFF707FD204691
:10578000FFF7D8FF58B95DB1002323622364636437
:105790002DB1204601F0D4FC2046FFF7CBFF38BDE9
:1057A000637813F0010F0BD10D4B1A6804210B4BDA
:1057B0001868FFF7EBFC2046FFF7BCFF0028EED18E
:1057C000074B1A680721054B1868FFF7DFFC2046D6
:1057D000FFF7B0FF0028D7D0E1E700BF1C39002059
:1057E0002039002038B5044604213E4B186802F0E9
:1057F000B9FA50B3E36A3B4A1068834225D002F0FD
:10580000C5FA0546E06A08B102F0C0FAA8421DD008
:1058100000283FD0E36A5BB100284AD0324A1268C0
:1058200010211846FFF7B2FC2046FFF783FF60B94E
:10583000002D4AD02B4B1868FFF704FF2046FFF7D6
:1058400079FF10B9274B1B68E36238BD4DB1254B7A
:105850001868FFF7F7FE2046FFF76CFF0028F1D02D
:10586000F3E7E06A48B1204B1A680F21FFF78EFC7E
:105870002046FFF75FFF0028E7D11B4B1A680E2177
:10588000184B1868FFF782FC2046FFF753FF0028EB
:10589000D8D0DAE7E36A002BBCD0134A12680F2194
:1058A0001846FFF773FC2046FFF744FF0028BFD0DF
:1058B000CBE70D4A12680F211846FFF767FC204618
:1058C000FFF738FF0028B3D0BFE7074B1A680E2157
:1058D000044B1868FFF75AFC2046FFF72BFF0028FF
:1058E000B0D0B2E71C39002020390020836A03B110
:1058F000704770B5054690F83D3013F0010F61D147
:10590000046A03E0204606F078FF044634B14FF401
:105910000041204602F026FA0028F3D1002C51D095
:10592000B5F9103083EAE371A1EBE37189B2334A30
:1059300012681068807E81420AD2B5F912100029DF
:10594000B8BF494289B2884202D9002129876987B4
:10595000298F11FA83F31BB22B87698F688A014460
:1059600009B2698783EAE370A0EBE37080B216683E
:1059700096F81BC0604507D881EAE17EAEEBE17E78
:105980001FFA8EFEF4451DD295F83DC04CF0010C77
:1059900085F83DC081EAE17CACEBE17C1FFA8CFC30
:1059A000604518D9002B0EDD95F83C30022161F3DB
:1059B000071385F83C300C212046FFF7E7FB28460B
:1059C000FFF7B8FE70BD95F83C30012161F3071375
:1059D00085F83C30EFE7002907DD95F83C300821D9
:1059E00061F3071385F83C30E5E795F83C30042176
:1059F00061F3071385F83C30DDE700BF2039002054
:105A000070B504460D468B7B012B28D0637913F0CB
:105A1000080F0AD0637923F00803637100236364DD
:105A2000627963F3000262712372266DB6B130466B
:105A3000FFF7D1FD904B186080B1E1686B68E360BF
:105A4000227AAB7B2372012B0ED0012B62D013B9CB
:105A5000012A00F0DC80884B00221A6070BD437977
:105A600013F0080FD2D0F9E7002AEED11AF0FEFCAD
:105A700060646968A1F10903122B47D8DFE803F0DD
:105A80002C0A394646464646464646464646464619
:105A900046461B000A213046FFF7A3FD774B1A68E4
:105AA0000121754B1868FFF771FB201DFFF742FEBF
:105AB0000028D0D0D2E71B213046FFF792FD6F4B74
:105AC0001A6820216C4B1868FFF760FB201DFFF758
:105AD00031FE0028BFD0C1E700213046FFF790FD1E
:105AE0003046FFF7C5FC201DFFF724FE0028B2D08A
:105AF000B4E700213046FFF783FD3046FFF7C2FCD4
:105B0000201DFFF717FE0028A5D0A7E73046FFF7B6
